:100000000C94CD130C94FE130C94FE130C94FE135D
:100010000C94FE130C94FE130C94FE130C94FE131C
:100020000C94FE130C94FE130C94FE130C94FE130C
:100030000C94FE130C94FE130C94FE130C94FE13FC
:100040000C94FE130C9411A90C94FE130C94FE1343
:100050000C94FE130C94FE130C94C6B70C9431ED63
:100060000C94FE130C949A7F0C94FE130C94FE13C4
:100070000C94FE130C94FE130C94FE130C94FE13BC
:100080000C94FE130C94FE130C94FE130C94FE13AC
:100090000C94FE130C94FE130C94FE130C947DEA46
:1000A0000C94FE130C94FE130C94FE130C94FE138C
:1000B0000C94FE130C94FE130C94FE130C94FE137C
:1000C0000C94FE130C94FE130C94FE130C94FE136C
:1000D0000C94FE130C94FE130C94FE130C94FE135C
:1000E0000C94FE13BFB6CFB6EEB6FEB619B71EB768
:1000F00021B726B729B72EB731B736B740B75FEE6D
:1001000064EE69EE73EE7DEEF6EE87EE8FEE97EE1F
:10011000A1EEABEEB5EEC4EECEEEF6EED8EEE2EE2C
:10012000ECEE17EF1AEF09EF0DEF13EF51EF1EEFA3
:1001300022EF28EF2CEF30EF36EF3AEF3EEF51EFA2
:1001400044EF48EF4CEF084AD73B3BCE016E84BCEE
:10015000BFFDC12F3D6C74319ABD56833DDA3D0021
:10016000C77F11BED9E4BB4C3E916BAAAABE00006A
:1001700000803F05A84CCDB2D44EB93836A9020C48
:1001800050B9918688083CA6AAAA2ABE0000008021
:100190003F004D3331004D383420582059205A202B
:1001A000450043616E6E6F7420656E7465722073D6
:1001B00075626469723A20006175746F25692E67F3
:1001C000006572726F722077726974696E6720744D
:1001D0006F2066696C650A004E6F7420534420706E
:1001E00072696E74696E670A005344207072696E9A
:1001F00074696E672062797465200044656C65746B
:10020000696F6E206661696C65642C2046696C6557
:100210003A200046696C652064656C657465643AD3
:10022000006F70656E206661696C65642C2046699C
:100230006C653A200057726974696E6720746F208C
:1002400066696C653A20006F70656E206661696C46
:1002500065642C2046696C653A20006F70656E20DD
:100260006661696C65642C2046696C653A200046BD
:10027000696C652073656C65637465640A0020535E
:10028000697A653A200046696C65206F70656E6515
:10029000643A20006F70656E206661696C65642C3D
:1002A0002046696C653A20002066696C653A20003A
:1002B0004E6F7720002220706F73002220706172D1
:1002C000656E743A2200535542524F5554494E457B
:1002D0002043414C4C207461726765743A22004B94
:1002E000494C4C45442E2000747279696E67207425
:1002F0006F2063616C6C207375622D67636F64653A
:100300002066696C6573207769746820746F6F204C
:100310006D616E79206C6576656C732E204D415849
:10032000206C6576656C2069733A00473930004768
:1003300031205A2D3230004D3234004D32332025D9
:10034000730053442063617264206F6B0A006F7006
:10035000656E526F6F74206661696C65640A007621
:100360006F6C756D652E696E6974206661696C6568
:10037000640A00534420696E6974206661696C0ADE
:100380000043616E6E6F74206F70656E20737562CE
:10039000646972200020204D383531205A005A2DD2
:1003A00050726F6265204F666673657420286D6DAC
:1003B000293A0A0020204D3230302044300A0020F3
:1003C000204D3230302044002044697361626C65F6
:1003D000640A0046696C616D656E7420736574749F
:1003E000696E67733A0020440020490020204D3395
:1003F00030312050005049442073657474696E6731
:10040000733A0A0020460020420020480020204D78
:100410003134352053004D6174657269616C206818
:10042000656174757020706172616D657465727359
:100430003A0A0020430020420020410020530020BF
:10044000520020204D363635204C0044656C7461D6
:100450002073657474696E67733A204C3D646961FA
:10046000676F6E616C5F726F642C20523D726164C5
:100470006975732C20533D7365676D656E74735F8A
:100480007065725F7365636F6E642C204142433DFB
:10049000646961676F6E616C5F726F645F747269CB
:1004A0006D5F746F7765725F5B3132335D0A002078
:1004B0005A0020590020204D363636205800456E0F
:1004C0006473746F702061646A7573746D656E74A3
:1004D00020286D6D293A0A0020204D3432302053F7
:1004E000004175746F20426564204C6576656C69C7
:1004F0006E673A0A00205A0020590020204D323001
:1005000036205800486F6D65206F666673657420ED
:10051000286D6D290A00204500205A00205900202E
:10052000580020420020540020204D323035205306
:1005300000416476616E6365642076617269616210
:100540006C65733A20533D4D696E20666565647233
:1005500061746520286D6D2F73292C20543D4D69E1
:100560006E2074726176656C206665656472617474
:100570006520286D6D2F73292C20423D6D696E69B1
:100580006D756D207365676D656E742074696D653A
:1005900020286D73292C20583D6D6178696D756D2B
:1005A000205859206A65726B20286D6D2F73292C95
:1005B00020205A3D6D6178696D756D205A206A65FD
:1005C000726B20286D6D2F73292C2020453D6D61A5
:1005D00078696D756D2045206A65726B20286D6D98
:1005E0002F73290A0020540020520020204D323061
:1005F00034205000416363656C65726174696F6E8D
:10060000733A20503D7072696E74696E672C205287
:100610003D7265747261637420616E6420543D7430
:10062000726176656C0A00204500205A002059004E
:1006300020204D3230312058004D6178696D756D44
:1006400020416363656C65726174696F6E20286D0B
:100650006D2F7332293A0A00204500205A00205994
:100660000020204D3230332058004D6178696D757F
:100670006D2066656564726174657320286D6D2FE9
:1006800073293A0A00204500205A002059002020F2
:100690004D39322058005374657073207065722094
:1006A000756E69743A0A0048617264636F646564C8
:1006B0002044656661756C742053657474696E6757
:1006C00073204C6F616465640A00454550524F4D7C
:1006D00020636865636B73756D206D69736D6174FC
:1006E00063680A00206279746573290A00207374B4
:1006F0006F7265642073657474696E6773207265C8
:100700007472696576656420280020627974657367
:10071000290A0053657474696E67732053746F728D
:1007200065642028004572726F722077726974695F
:100730006E6720746F20454550524F4D210A007A54
:100740005F6D61783A20007A5F6D696E3A200079BA
:100750005F6D61783A2000785F6D61783A200052D1
:1007600065706F7274696E6720656E6473746F7004
:10077000207374617475730A00456E6473746F70CE
:100780007320256320256320256320256300205ADC
:100790003A0020593A0020583A00656E6473746F2D
:1007A0007073206869743A2000446F6E652073612D
:1007B00076696E672066696C652E0A004D323900D5
:1007C0004731205A2B323000473931002020506CFD
:1007D000616E6E65724275666665724279746573A4
:1007E0003A20002046726565204D656D6F72793A3A
:1007F0002000436F6D70696C65643A204465632026
:10080000313320323031380A00207C204175746841
:100810006F723A2028484533442C20323031382F2B
:1008200031322F3138290A00323031362D31322D14
:1008300030362031323A303000204C61737420550C
:100840007064617465643A2000312E312E300A00E4
:100850004D61726C696E0020536F667477617265CA
:100860002052657365740A00205761746368646F71
:10087000672052657365740A002042726F776E209C
:100880006F75742052657365740A0020457874652D
:10089000726E616C2052657365740A00506F7765E3
:1008A0007255700A0073746172740A005072696E36
:1008B0007465722068616C7465642E206B696C6C61
:1008C00028292063616C6C6564210A004B494C4CFB
:1008D00045442E20004B494C4C45442E20002074AA
:1008E0006F6F206C6F6E6720657874727573696FB7
:1008F0006E2070726576656E7465640A0020636FA1
:100900006C6420657874727573696F6E207072659F
:1009100076656E7465640A006F6B00526573656E70
:10092000643A20004E6F2063617365206C696768CC
:10093000740A003A20007A5F6D61783A20007A5F8D
:100940006D696E3A20005A204F6666736574004FD9
:10095000666673657473206170706C6965640045C8
:1009600072723A20546F6F206661722100546F6F6B
:10097000206661722066726F6D20726566657265B1
:100980006E636520706F696E740A0042696C696EEF
:100990006561722047726964206E6F742079657496
:1009A00020637265617465640A00426564204C6569
:1009B00076656C696E6720004661696C65642074B9
:1009C0006F20656E61626C6520426564204C6576BF
:1009D000656C696E670A0043290A0061626C656490
:1009E00020286D696E2074656D702000436F6C6403
:1009F00020657874727564657320617265200020CB
:100A0000643A0020693A0020703A00205A002059C8
:100A100000580020204D61783A2000205A002059CB
:100A200000580020204D696E3A20004F6666005342
:100A30006F667420656E6473746F70733A20005330
:100A4000657474696E672054726176656C204163C9
:100A500063656C65726174696F6E3A2000536574EA
:100A600074696E67205265747261637420416363B8
:100A7000656C65726174696F6E3A200053657474B9
:100A8000696E67205072696E7420416363656C659E
:100A9000726174696F6E3A200053657474696E6791
:100AA000205072696E7420616E64205472617665A4
:100AB0006C20416363656C65726174696F6E3A2086
:100AC000004D31343520533C696E6465783E206FAB
:100AD0007574206F662072616E67652028302D3135
:100AE000290A004649524D574152455F4E414D45F6
:100AF0003A4D61726C696E20312E312E304B32309E
:100B0000302032494E314F555420534F55524345B2
:100B10005F434F44455F55524C3A2050524F544F1B
:100B2000434F4C5F56455253494F4E3A312E302079
:100B30004D414348494E455F545950453A4B323038
:100B4000302032494E314F55542045585452554467
:100B500045525F434F554E543A3120555549443A1A
:100B600063656465326132662D343161322D34370C
:100B700034382D396231322D633535633632663380
:100B8000363766660A004B3230302032494E314FDC
:100B90005554204F66662E0042656420646F6E6572
:100BA0002E003F0A0020573A0042656420486561E4
:100BB00074696E672E0048656174696E6720646FA2
:100BC0006E652E003F0A0020573A0048656174693F
:100BD0006E672E2E2E004B3230302032494E314F70
:100BE00055542072656164792E006F6B004B494C3F
:100BF0004C45442E20004543484F00494E464F0087
:100C00004552524F52530044525952554E00434F91
:100C10004D4D554E49434154494F4E006F66660055
:100C2000F60BFB0B000C070C0E0C44454255473AE3
:100C30000048656174696E672E2E2E004B3230308D
:100C40002032494E314F55542072656164792E002F
:100C5000506C6561736520736574205A5F6F6666BA
:100C60007365743A005374616E6461726420446504
:100C700076696174696F6E3A20002052616E676513
:100C80003A2000204D61783A2000204D696E3A20CC
:100C9000004D65616E3A200046696E69736865644F
:100CA00021002072616E67653A2000206D61783AFC
:100CB0002000206D696E3A2000207369676D613AEB
:100CC0002000206D65616E3A20003A207A3A2000BB
:100CD000206F662000205A00205900205800476FDE
:100CE000696E6720746F3A002C200050756C6C6937
:100CF0006E6720706F696E7420746F7761726473B1
:100D00002063656E7465723A00436C6F636B77693C
:100D100073650A00436F756E7465722D0020446917
:100D200072656374696F6E3A2000202020616E67DF
:100D30006C653A20005374617274696E6720726149
:100D4000646975733A2000506F736974696F6E69D6
:100D50006E67207468652070726F62652E2E2E0A91
:100D6000003F4E756D626572206F66206C6567731B
:100D700020696E206D6F76656D656E74206E6F7480
:100D800020706C61757369626C652028302D313577
:100D9000292E0A003F2028582C5929206C6F6361A6
:100DA00074696F6E206F757473696465206F662057
:100DB00070726F626561626C6520726164697573DF
:100DC0002E0A003F53616D706C652073697A65204F
:100DD0006E6F7420706C61757369626C6520283465
:100DE0002D3530292E0A004D3438205A2D50726F7F
:100DF0006265205265706561746162696C697479BD
:100E000020546573740A003F566572626F736520E3
:100E10004C6576656C206E6F7420706C61757369BB
:100E2000626C652028302D34292E0A0050726F74B0
:100E300065637465642050696E0A00256973002536
:100E4000696D20256973002569682025696D202555
:100E5000697300256964202569682025696D20254E
:100E60006973002569792025696420256968202532
:100E7000696D20256973005072696E742074696D04
:100E8000653A2000456E642066696C65206C697364
:100E9000740A00426567696E2066696C65206C693A
:100EA00073740A004E6F206D6F76652E004B3230E2
:100EB000302032494E314F55542072656164792E8D
:100EC00000526573756D696E67207072696E74008B
:100ED0005761697420666F7220757365722E2E2EAD
:100EE0000047323800473330206E6577205A5F6FF5
:100EF00066667365743A00506C656173652073654E
:100F000074205A5F6F66667365743A00205A5F4DAD
:100F100041585F504F533A2000206C6576656C5FF6
:100F20006265645F763A2000205A3A200020593AE0
:100F3000200042656420583A200020453A00205A9B
:100F40003A0020593A00583A00203D3D3D3D0020EE
:100F50002020200042696C696E656172204C6576C4
:100F6000656C696E6720477269643A0A20002064E4
:100F7000667361663A2000205A3A200020593A20D0
:100F80000042656420583A2000206669727374003C
:100F90005A0059005800486F6D652000206669723C
:100FA00073740A005A0059005800486F6D6520009C
:100FB000473239206E6577205A5F6F6666736574B5
:100FC0003A0028422961636B00284629726F6E74CB
:100FD000002852296967687400284C2965667400E6
:100FE00052756E6E696E6720696E204452592D529B
:100FF000554E206D6F64650A004732392041757483
:101000006F20426564204C6576656C696E670A00E6
:101010003F2856296572626F7365204C6576656C52
:1010200020697320696D706C61757369626C6520ED
:1010300028302D34292E0A004D38383800473238F0
:1010400000473239004732380047333000473238E2
:1010500000473238004732390047323800206C658B
:1010600076656C5F6265645F76616C75653A0020D9
:10107000453A00205A3A0020593A00583A00576140
:10108000726E696E673A20486F6D696E67204275AF
:101090006D702044697669736F72203C20310A00BC
:1010A000536C6565702E2E2E0047322F4733206219
:1010B000616420706172616D65746572730A0041CC
:1010C00063746976652045787472756465723A2038
:1010D000002042403A0020403A00202F0020423AAF
:1010E00000202F0020543A0020706F736974696FDC
:1010F0006E206F7574206F662072616E67652E0AB0
:10110000003F50726F62652000556E6B6E6F776E98
:1011100020636F6D6D616E643A20220020496E7607
:10112000616C69642065787472756465722000531F
:10113000442072656164206572726F720A00446FA8
:101140006E65207072696E74696E672066696C6581
:101150000A004B494C4C45442E200053544F5050EC
:1011600045442E20005072696E7465722073746F4E
:10117000707065642064756520746F206572726F8D
:1011800072732E2046697820746865206572726FCC
:101190007220616E6420757365204D393939207471
:1011A0006F20726573746172742E202854656D709F
:1011B00065726174757265206973207265736574F8
:1011C0002E205365742069742061667465722072E4
:1011D000657374617274696E67290A004E6F204CE2
:1011E000696E65204E756D6265722077697468203E
:1011F000636865636B73756D2C204C617374204C50
:10120000696E653A20004E6F20436865636B7375A5
:101210006D2077697468206C696E65206E756D62EB
:1012200065722C204C617374204C696E653A200005
:10123000636865636B73756D206D69736D6174634D
:10124000682C204C617374204C696E653A20004C08
:10125000696E65204E756D626572206973206E6FD0
:1012600074204C617374204C696E65204E756D62FC
:1012700065722B312C204C617374204C696E653A79
:1012800020004D31313000656E7175657565696E90
:10129000672022000101010000A0400000A04000E2
:1012A00000A040000048430000484300008C430079
:1012B0000000000000000000008C430000C8420055
:1012C00000C84200008C430000C8C20000C8C20031
:1012D0000000006563686F3A004572726F723A00F1
:1012E00020746F6F206C6F6E6720657874727573F1
:1012F000696F6E2070726576656E7465640A002091
:10130000636F6C6420657874727573696F6E20709A
:10131000726576656E7465640A00000021104220D3
:1013200063308440A550C660E770088129914AA1C6
:101330006BB18CC1ADD1CEE1EFF13112100273323D
:101340005222B5529442F772D662399318837BB316
:101350005AA3BDD39CC3FFF3DEE3622443342004CD
:101360000114E664C774A44485546AA54BB5288566
:101370000995EEE5CFF5ACC58DD55336722611161D
:101380003006D776F6669556B4465BB77AA71997B6
:101390003887DFF7FEE79DD7BCC7C448E5588668A5
:1013A000A7784008611802282338CCC9EDD98EE906
:1013B000AFF9488969990AA92BB9F55AD44AB77A7D
:1013C000966A711A500A333A122AFDDBDCCBBFFB56
:1013D0009EEB799B588B3BBB1AABA66C877CE44C8D
:1013E000C55C222C033C600C411CAEED8FFDECCDA6
:1013F000CDDD2AAD0BBD688D499D977EB66ED55E5D
:10140000F44E133E322E511E700E9FFFBEEFDDDFF5
:10141000FCCF1BBF3AAF599F788F8891A981CAB181
:10142000EBA10CD12DC14EF16FE18010A100C230B3
:10143000E3200450254046706760B9839893FBA36E
:10144000DAB33DC31CD37FE35EF3B1029012F32203
:10145000D2323542145277625672EAB5CBA5A895BE
:1014600089856EF54FE52CD50DC5E234C324A01453
:1014700081046674476424540544DBA7FAB799874E
:10148000B8975FE77EF71DC73CD7D326F2369106A3
:10149000B01657667676154634564CD96DC90EF996
:1014A0002FE9C899E9898AB9ABA9445865480678F3
:1014B0002768C018E1088238A3287DCB5CDB3FEBAE
:1014C0001EFBF98BD89BBBAB9ABB754A545A376A43
:1014D000167AF10AD01AB32A923A2EFD0FED6CDD7E
:1014E0004DCDAABD8BADE89DC98D267C076C645C93
:1014F000454CA23C832CE01CC10C1FEF3EFF5DCF8E
:101500007CDF9BAFBABFD98FF89F176E367E554EE2
:10151000745E932EB23ED10EF01E7C3C3E5E2B3D9F
:101520003F2F5B5D3B2C2A225C00205A3A00205959
:101530003A0020436F756E7420583A20004D3834BD
:1015400020582059205A20450024F4D43050C38E0E
:1015500020C2A24017828B7011127A910D816CD932
:101560000AA861E108C7586607615143061E4B5D32
:1015700005C145A7041A411104093D980371393189
:10158000034036DB0265339102D4305402802E1DB5
:1015900002632CEE01752AC501B028A00110278135
:1015A000018F2564012B244B01E0223401AC211F63
:1015B000018D200D01801FFC00841EED00971DDFB2
:1015C00000B81CD200E61BC600201BBC00641AB287
:1015D00000B219A8000A19A0006A189900D1179141
:1015E0000040178B00B516840031167E00B31579C4
:1015F000003A157300C7146F0058146A00EE1366A2
:10160000008813630025135E00C7125B006C12573D
:101610000015125400C111510070114F0021114BDF
:1016200000D61049008D10470046104400021042B9
:1016300000C00F4000800F3E00420F3C00060F3BF1
:1016400000CB0E3800930E37005C0E3500270E34A9
:1016500000F30D3200C10D3100900D3000600D2EF1
:1016600000320D2D00050D2C00D90C2B00AE0C29DD
:1016700000850C29005C0C2700350C27000E0C2679
:1016800000E80B2400C40B2400A00B23007D0B23D7
:10169000005A0B2100390B2100180B2000F80A1FFB
:1016A00000D90A1E00BB0A1E009D0A1D00800A1DEB
:1016B00000630A1C00470A1B002C0A1B00110A1AAF
:1016C00000F7091A00DD091900C4091900AB09194E
:1016D00000920917007B091800630917004C0916CE
:1016E0000036091600200916000A091500F508152C
:1016F00000E0081400CC081400B8081400A4081472
:1017000000900813007D0812006B0813005808129F
:1017100000460812003408110023081100120811B5
:101720000001081100F0071000E0071000D00710BA
:1017300000C0071000B0070F00A107100091070EAE
:101740000083070F0074070F0065070E0057070E90
:101750000049070E003B070D002E070E0020070D65
:101760000013070D0006070D00F9060C00ED060D2D
:1017700000E0060C00D4060C00C8060C00BC060CE9
:1017800000B0060C00A4060B0099060C008D060B99
:101790000082060B0077060B006C060B0061060A40
:1017A0000057060B004C060A0042060A0038060ADB
:1017B000002E060A0024060A001A060A001006096E
:1017C0000007060A00FD050900F4050900EB0509FC
:1017D00000E2050900D9050900D0050900C705097F
:1017E00000BE050900B5050800AD050800A50509FE
:1017F000009C050800940508008C05080084050875
:10180000007C050800740508006C050700650508E4
:10181000005D050700560508004E0507004705074F
:10182000004005080038050700310507002A0507B4
:1018300000230507001C050600160507000F050715
:10184000000805060002050700FB040600F5040772
:1018500000EE040600E8040600E2040700DB0406CC
:1018600000D5040600CF040600C9040600C3040620
:1018700000BD040600B7040600B1040500AC040670
:1018800000A6040600A00405009B040600950405BC
:1018900000900406008A0405008504050080040603
:1018A000007A04050075040500700405006B04054A
:1018B0000066040500610405005C0405005704058A
:1018C00000520405004D04050048040500430405CA
:1018D000003E0404003A0405003504050030040409
:1018E000002C04050027040400230405001E040442
:1018F000001A04040016040500110404000D040479
:1019000000090405000404040000040400FC0304AE
:1019100000F8030400F4030400F0030400EC0304E3
:1019200000E8030400E4030400E0030400DC030413
:1019300000D8030400D4030400D0030400CC030443
:1019400000C8030300C503030024F404D9201BC40A
:101950000C5C0E9804C4095F0265077101F405F977
:1019600000FB04B30048048700C103690058035515
:101970000003034500BE023A008402310053022AEC
:10198000002902250004022000E4011C00C80119FE
:1019900000AF0117009801140084011300710110B9
:1019A000006101100051010E0043010D0036010BD2
:1019B000002B010B0020010B00150109000C01098F
:1019C0000003010800FB000800F3000800EB00071B
:1019D00000E4000600DE000600D8000600D2000683
:1019E00000CC000500C7000500C2000500BD0004D2
:1019F00000B9000400B5000400B1000400AD00040B
:101A000000A9000400A5000300A20003009F000439
:101A1000009B000300980003009500020093000360
:101A200000900003008D0002008B0003008800027C
:101A3000008600020084000300810002007F000293
:101A4000007D0002007B00020079000200770001A7
:101A500000760002007400020072000100710002B2
:101A6000006F0002006D0001006C0002006A0001BE
:101A700000690002006700010066000100650001C6
:101A800000640002006200010061000100600001CA
:101A9000005F0002005D0001005C0001005B0001CE
:101AA000005A0001005900010058000100570001D0
:101AB00000560001005500010054000100530000D1
:101AC00000530001005200010051000100500001CC
:101AD000004F0001004E0000004E0001004D0001CB
:101AE000004C0001004B0000004B0001004A0001C7
:101AF00000490001004800000048000100470001C3
:101B000000460000004600010045000000450001BD
:101B100000440001004300000043000100420000B7
:101B200000420001004100000041000100400001AE
:101B3000003F0000003F0001003E0000003E0001A9
:101B4000003D0000003D0001003C0000003C0000A2
:101B5000003C0001003B0000003B0001003A000097
:101B6000003A00010039000000390001003800008F
:101B70000038000000380001003700000037000185
:101B8000003600000036000000360001003500007D
:101B90000035000000350001003400000034000072
:101BA0000034000100330000003300000033000166
:101BB000003200000032000000320001003100005D
:101BC0000031000000310001003000000030000052
:101BD00000300001002F0000002F0000002F000047
:101BE000002F0001002E0000002E0000002E00013A
:101BF000002D0000002D0000002D0000002D000130
:101C0000002C0000002C0000002C0000002C000123
:101C1000002B0000002B0000002B0000002B000117
:101C2000002A0000002A0000002A0000002A00010B
:101C30000029000000290000002900000029000000
:101C400000290001002800000028000000280000F2
:101C500000280000002800010027000000270000E5
:101C600000270000002700000027000100260000D8
:101C700000260000002600000026000000260001CB
:101C800000250000002500000025000000250000C0
:101C900000250000002500010024000000240000B1
:101CA00000240000002400000024000100230000A4
:101CB0000023000000230000002300000023000098
:101CC0000023000000230001002200000022000089
:101CD000002200000022000000220000002200017B
:101CE0000021000000210000002100000021000070
:101CF0000021000000210000002100010020000060
:101D00000020000000200000002000000020000053
:101D1000002000000020000000200001001F000043
:101D2000001F0000001F0000001F0000001F000037
:101D3000001F0000001F0001001E0000001E000028
:101D4000001E0000001E00000028290A0053746FC6
:101D50007077617463683A3A0072657365740073F2
:101D6000746172740070617573650073746F7000D4
:101D7000546865726D616C2052756E61776179008F
:101D8000544845524D414C2052554E4157415900FF
:101D900048656174696E67206661696C65640048B6
:101DA000656174696E67206661696C656400486589
:101DB0006174696E67206661696C6564004865617D
:101DC00074696E67206661696C6564004D494E54A4
:101DD000454D50207472696767657265640045728D
:101DE000723A204D494E54454D50204245440045DD
:101DF00072723A204D494E54454D50004D41585451
:101E0000454D50207472696767657265640045725C
:101E1000723A204D415854454D50204245440045AA
:101E200072723A204D415854454D50006265640A23
:101E3000002C2073797374656D2073746F707065F6
:101E40006421204865617465725F49443A2000232B
:101E5000646566696E65202044454641554C545F73
:101E60004B64200023646566696E65202044454606
:101E700041554C545F4B69200023646566696E656B
:101E8000202044454641554C545F4B70200050493A
:101E900044204175746F74756E652066696E697350
:101EA000686564212050757420746865206C6173C6
:101EB00074204B702C204B6920616E64204B642091
:101EC000636F6E7374616E74732066726F6D2062DF
:101ED000656C6F7720696E746F20436F6E666967FB
:101EE00075726174696F6E2E680A00504944204112
:101EF00075746F74756E65206661696C6564212008
:101F000074696D656F75740A005049442041757499
:101F10006F74756E65206661696C65642120546517
:101F20006D706572617475726520746F6F20686979
:101F300067680A00204B643A2000204B693A200071
:101F4000204B703A20000A20436C61737369632050
:101F5000504944200A002054753A2000204B753A1D
:101F60002000206D61783A2000206D696E3A2000D3
:101F700020643A200020626961733A200070012CCD
:101F80000190012701B0012201C0011D01F00118DB
:101F9000011002130130020E0160020901900204D7
:101FA00001C002FF000003FA004003F5008003F0C7
:101FB00000D003EB002004E6007004E100E004DC44
:101FC000004005D700C005D2004006CD00D006C8AD
:101FD000008007C3003008BE00F008B900C009B493
:101FE00000B00AAF00B00BAA00D00CA500000EA0F4
:101FF00000500F9B00C01096005012910000148CEE
:1020000000C0158700B0178200B0197D00D01B7882
:1020100000001E730040206E0090226900F02464CE
:102020000040275F0090295A00E02B5500102E50E9
:102030000020304B0010324600E033410090353C28
:10204000001037370070383200A0392D00B03A2820
:1020500000A03B2300603C1E00103D1900903D1481
:1020600000103E0F00703E0A00C03E0500003F0019
:1020700000436172642072656D6F76656400436130
:10208000726420696E73657274656400052E2E009B
:102090004D61696E0046696C2E204469612E0046D0
:1020A000696C2E204469612E004520696E206D6D9B
:1020B00033004F6666004F6E2000436F6E74726F80
:1020C0006C004573746570732F6D6D004573746596
:1020D00070732F6D6D005A73746570732F6D6D0082
:1020E0005A73746570732F6D6D00597374657073D6
:1020F0002F6D6D005973746570732F6D6D0058737B
:10210000746570732F6D6D005873746570732F6DE7
:102110006D00412D74726176656C00412D747261A1
:1021200076656C00412D7265747261637400412D97
:102130007265747261637400416D6178204500417D
:102140006D6178204500416D6178205A00416D61D4
:1021500078205A00416D6178205900416D617820E6
:102160005900416D6178205800416D617820580018
:102170005654726176206D696E00565472617620F5
:102180006D696E00566D696E00566D696E00566D14
:102190006178204500566D6178204500566D617864
:1021A000205A00566D6178205A00566D617820598A
:1021B00000566D6178205900566D617820580056A0
:1021C0006D617820580056652D6A65726B00566502
:1021D0002D6A65726B00567A2D6A65726B00567AAD
:1021E0002D6A65726B0056792D6A65726B0056799F
:1021F0002D6A65726B0056782D6A65726B00567891
:102200002D6A65726B00416363656C0041636365B1
:102210006C005A204F6666736574005A204F6666DC
:1022200073657400436F6E74726F6C0053746F72D9
:1022300065206D656D6F727900426564004265646A
:10224000004E6F7A7A6C65004E6F7A7A6C65004644
:10225000616E2073706565640046616E2073706501
:1022600065640054656D70657261747572650050C7
:102270007265686561742041425320636F6E660029
:102280005072656865617420504C4120636F6E66C2
:10229000005049442D44005049442D4400504944C5
:1022A0002D49005049442D49005049442D500050BB
:1022B00049442D5000200220466163740020022012
:1022C00046616374002002204D6178002002204D99
:1022D0006178002002204D696E002002204D696E59
:1022E000004175746F74656D70004F6666004F6EC7
:1022F000200046616E2073706565640046616E2043
:1023000073706565640042656400426564004E6FE9
:102310007A7A6C65004E6F7A7A6C6500436F6E74E2
:10232000726F6C00526573746F7265206661696CC0
:1023300073616665004C6F6164206D656D6F7279C5
:102340000053746F7265206D656D6F727900466918
:102350006C616D656E74004D6F74696F6E005465CD
:102360006D7065726174757265004D61696E004DC6
:102370006F766520302E316D6D004D6F76652031A2
:102380006D6D004D6F76652031306D6D005072655A
:1023900070617265004578747275646572004D6F86
:1023A0007665205A004D6F76652059004D6F766531
:1023B0002058004D6F766520617869730045787408
:1023C0007275646572004D6F7665205A004D6F76A8
:1023D000652059004D6F7665205800436F6F6C641F
:1023E0006F776E00507265686561742041425300DA
:1023F0005072656865617420504C41004D3834005E
:1024000044697361626C6520737465707065727382
:10241000004D6F766520617869730047323800415E
:1024200075746F20686F6D65004D61696E00507244
:1024300065686561742041425320426564005072B2
:102440006568656174204142530050726570617225
:1024500065004733330053746F7265005A204F662E
:1024600066736574005A204F6666736574004E6526
:1024700077205A204F6666736574004E6577205A40
:10248000204F66667365740047333500426567699F
:102490006E204C6576656C696E67004175746F20BF
:1024A0004C6576656C696E6720426564004D353019
:1024B000300053746F7265004D3835372046005A2E
:1024C000202D20302E31004D3835372041005A2044
:1024D0002B20302E310050726570617265204C6582
:1024E00076656C696E6700473336004D65617375BC
:1024F0007265205A20506F73004D61696E005072F2
:10250000656865617420504C4120426564005072DA
:10251000656865617420504C41005072657061724D
:102520006500466C6F7700466C6F770046616E20E1
:1025300073706565640046616E2073706565640044
:1025400042656400426564004E6F7A7A6C65004EA5
:102550006F7A7A6C650053706565640053706565C9
:1025600064004D61696E004E6F20534420636172B8
:1025700064005072696E742066726F6D205344005F
:1025800053746F70207072696E7400526573756D4C
:1025900065207072696E7400506175736520707289
:1025A000696E7400436F6E74726F6C004175746F66
:1025B000204C6576656C696E6720426564005072D8
:1025C00065706172650054756E6500496E666F20B6
:1025D00073637265656E0025753A25303275002586
:1025E0003032753A25303275002D2D2D00534400C0
:1025F0005A0059005800012000012000506C65610C
:102600007365207265736574005052494E5445528B
:102610002048414C54454400484533440057656CBC
:10262000636F6D650057656C636F6D650020312EBB
:10263000312E300000000A0B02090C0D0E080703B2
:102640000401000000000000000000000000000085
:10265000000000000000000000000000000000007A
:102660001211100000000000000000000000000037
:1026700000000000000000000000010210202008FF
:1026800008102040102040800201020108040201CD
:10269000010204081020408080402010080402013C
:1026A0008004020180402010080402010804020195
:1026B000010204081020408001020408102040801C
:1026C00005050505070508080808020202020A0AAE
:1026D00008080404040401010101010101010303CC
:1026E000030303030303040707070C0C0C0C0C0C77
:1026F0000C0C0202020206060606060606060B0B74
:102700000B0B0B0B0B0B00002000230026002900F5
:102710002C002F0032000001000003010601090116
:1027200000002200250028002B002E00310034007C
:1027300002010000050108010B0100002100240036
:1027400027002A002D0030003300010100000401A1
:1027500007010A014E414E494E495459494E46CD52
:10276000CCCC3D0AD7233C17B7D13877CC2B329548
:1027700095E6241FB14F0A000020410000C8420026
:10278000401C4620BCBE4CCA1B0E5AAEC59D7400F0
:10279000CA7E5D936AC251EA977F11241FBECFEFB4
:1027A000D1E2DEBFCDBF00E00CBF14E0A0E0B2E09C
:1027B000ECE6F9EF01E00BBF02C007900D92A638DE
:1027C000B107D9F726E1A6E8B4E001C01D92A33A0B
:1027D000B207E1F717E2C8E9D7E200E006C02297A6
:1027E0000109FE010BBF0E94FEF4C039D10780E051
:1027F0000807A9F70E94E9EF0C94A5FC0C940000CF
:10280000FC0114821782138212828AE094E0918381
:10281000808308952AE034E0FC01318320832781FE
:10282000222319F004960C94E7990895CF92DF9231
:10283000EF92FF920F931F93CF93DF93EC018F964C
:10284000DFDFCE01805B9F4FDBDF7E012FE6E20EF4
:10285000F11C87016E013BE5C31A3EEFD30AC801A4
:10286000CFDF015E1F4F0C151D05C9F7FE01EA55AC
:10287000FE4F89E1818314823596178ACE018753F2
:102880009E4FBEDF198218821B821A82FE01E65813
:10289000FD4F1082118212821382349610821182AF
:1028A00012821382F8011082FE01E851FE4F10825D
:1028B00086E391E0F7019C01119221503040E1F74D
:1028C000FE01EA57FD4F81E080831EA61DA60E94EF
:1028D0007BEDCE57DD4F68577C4E8F4F9F4F6883FF
:1028E00079838A839B83DF91CF911F910F91FF9012
:1028F000EF90DF90CF900895FC0120E03EE2DB01F5
:102900004C91403241F0283011F430833196DB0194
:102910004C91408331962F5F6F5F7F4F2B3079F75B
:10292000108208952F923F924F925F926F927F9202
:102930008F929F92AF92BF92CF92DF92EF92FF92CF
:102940000F931F93CF93DF93CDB7DEB7C857D1094D
:102950000FB6F894DEBF0FBECDBF8C016B015A01DC
:1029600029012DB73EB7E3963FAF2EAFE397AD9663
:102970001FAEAD9734E0A30EB11C4296E5969FAF13
:102980008EAFE597180199E7291A9DEF390AF801EA
:10299000E757FD4FAF96FFAFEEAFAF973801F5E0C9
:1029A0006F0E711C7E012FE5E20EF11C80E490E0B9
:1029B0008C0F9D1F0496E7969FAF8EAFE797E59625
:1029C0004EAD5FADE597BE016F5F7F4FC5010E94C1
:1029D0004D9818160CF053C13C85232F28712031D7
:1029E00009F0D4C0F101808191810197029708F428
:1029F000CDC02DB73EB7E1963FAF2EAFE197BE01F8
:102A00006F5F7F4FC70178DF81E0F6019081911100
:102A1000B5C0E1E0F0E0D7010D900020E9F7EE1934
:102A2000FF09EA0FFB1F31962DB73EB72E1B3F0B58
:102A30000FB6F8943EBF0FBE2DBFEDB7FEB731966F
:102A40004F01882319F06FE473E001C0B601C4019F
:102A50000E94A6F9B701C4010E9487F96FE473E0F0
:102A6000C4010E9487F9CE01805C9F4FC9DE21E03E
:102A7000A701B501E7968EAD9FADE7970E94DE9B5B
:102A800081114FC0F10180819181892B09F049C0EA
:102A9000E3EDF2E184919F012F5F3F4F882381F0A6
:102AA000E8962FAFE897E9963FAFE9970E94278015
:102AB000E8962FADE897E9963FADE997F901EACF9F
:102AC000E1E8F3E084919F012F5F3F4F811102C045
:102AD000970110C0E8962FAFE897E9963FAFE997C6
:102AE0000E942780E8962FADE897E9963FADE997D9
:102AF000F901E8CFF90181919F01882379F0E896E7
:102B00002FAFE897E9963FAFE9970E942780E996B3
:102B10003FADE997E8962FADE897ECCF8AE00E94A9
:102B200027808BE1FE01EC5BFF4FDE019596019063
:102B30000D928A95E1F724968EAD9FAD24979CA3C4
:102B40008BA38AE094E09AA389A320E030E0AE0151
:102B50004F5D5F4FB401C801E5DECE0181965ADEBC
:102B6000CE01805C9F4F56DEE1962EAD3FADE197E2
:102B70000FB6F8943EBF0FBE2DBF21CF80E001906D
:102B80000020E9F73197EC19FD0945CF89818823A9
:102B900009F475C0853E09F412CF8E3209F40FCFC7
:102BA000F80182898E3209F40ACF3A7009F007CF12
:102BB00081E0203109F080E0F8018483811108C0B0
:102BC0008985873409F0FBCE8A858E3709F4F7CEE4
:102BD000F101808191818130910569F08230910508
:102BE00049F1892B09F0EBCEBE016F5F7F4FC30126
:102BF00083DE46010AC0AF96EEADFFADAF97808190
:102C00009181019691838083DACEF40181914F0105
:102C1000882319F00E942780F8CF4301F4018191A5
:102C20004F01882319F00E942780F8CF8AE00E9484
:102C30002780C5CEBE016F5F7F4FC3015DDE4114AB
:102C4000510439F0B301C2010E9474F9892B79F45F
:102C500016C0AD96FFADAD972F2F30E0AF96EEAD1D
:102C6000FFADAF97808191812817390741F0AD966C
:102C7000FFADAD97FF5FAD96FFAFAD97A0CEE396EA
:102C80002EAD3FADE3970FB6F8943EBF0FBE2DBFFC
:102C9000C858DF4F0FB6F894DEBF0FBECDBFDF912F
:102CA000CF911F910F91FF90EF90DF90CF90BF9049
:102CB000AF909F908F907F906F905F904F903F90DC
:102CC0002F900895EF92FF920F931F93CF93DF936E
:102CD000CDB7DEB76F970FB6F894DEBF0FBECDBF8E
:102CE0008C01FC01E957FD4F118210827C0183E3C6
:102CF000E80EF11C40E050E0BA01C7010E940499BF
:102D00008BE1F701DE01159601900D928A95E1F7AE
:102D1000F80181A992A99C838B838AE094E09A832D
:102D2000898320E030E0AE014F5F5F4F61E274E0E5
:102D3000C801F8DDCE0101966DDD6F960FB6F894EF
:102D4000DEBF0FBECDBFDF91CF911F910F91FF90DE
:102D5000EF900895EF92FF920F931F93CF93DF931D
:102D6000EC011B828EA9882321F0CE01C3960E941C
:102D7000E7997E018AE5E81A8EEFF80A45E360E0FC
:102D8000C7010E947294811119C0E3EDF2E18491B0
:102D90008F010F5F1F4F882321F00E942780F801C9
:102DA000F6CFE3E7F3E084918F010F5F1F4F882395
:102DB00009F467C00E942780F801F5CF8E01055500
:102DC0001E4F41E0B701C8010E94E8A1811120C057
:102DD00040E0B701C8010E94E8A1811119C0E9EDE6
:102DE000F2E184918F010F5F1F4F882321F00E9431
:102DF0002780F801F6CFEFE5F3E084918F010F5FB4
:102E00001F4F882309F43DC00E942780F801F5CFA9
:102E1000B801CE01C3960E94F196811118C0E9ED68
:102E2000F2E184918F010F5F1F4F882321F00E94F0
:102E30002780F801F6CFEEE4F3E084918F010F5F75
:102E40001F4F8823F1F00E942780F801F6CF81E020
:102E50008B83E3EDF2E184918F010F5F1F4F882395
:102E600021F00E942780F801F6CFE2E4F3E084919C
:102E70008F010F5F1F4F882321F00E942780F801E8
:102E8000F6CFCE01805B9F4F2BE1FE01F396DC0174
:102E9000149601900D922A95E1F729A93AA9FC010F
:102EA000338322833297AF96D183C083DF91CF9152
:102EB0001F910F91FF90EF900895FC0112821382F1
:102EC0000895CF92DF92EF92FF920F931F93CF93CB
:102ED000DF93CDB7DEB7CDB6DEB6FB0101900020A3
:102EE000E9F7E61BF70B34968DB79EB78E1B9F0B49
:102EF0000FB6F8949EBF0FBE8DBF0DB71EB70F5F04
:102F00001F4F7F936F938BE393E09F938F931F9358
:102F10000F930E94CAF9780194E0E90EF11C0F901A
:102F20000F900F900F900F900F90F70180818823E2
:102F300049F0992787FD90950E940AF9F70181933E
:102F40007F01F3CF60E0C8010E94213587E393E061
:102F50000E94A4350FB6F894DEBE0FBECDBEDF9141
:102F6000CF911F910F91FF90EF90DF90CF90089538
:102F7000FC012381222381F021E0228380918604B9
:102F8000882351F08FE293E00E94A4358BE293E016
:102F90000E94A435109286040895FC011282E05329
:102FA000FE4F2081222321F083539E4F0C94E799FA
:102FB0000895AF92BF92CF92DF92EF92FF920F935C
:102FC0001F93CF93DF931F92CDB7DEB78C018FE2B3
:102FD000FB0181935F01D12C21E07801FBE5EF1A21
:102FE000FEEFFF0A8FE1C82EF7018081D816C8F4E2
:102FF000B501C801CD9C800D911D11248D589F4FA6
:1030000029830E949896C50129815C010196F501EA
:103010003081332321F02D3810F42F5FF6CFD39475
:10302000E3CF27FD11C0B501C80183539E4F0F9018
:10303000DF91CF911F910F91FF90EF90DF90CF9094
:10304000BF90AF900C949896F50110820F90DF918D
:10305000CF911F910F91FF90EF90DF90CF90BF9095
:10306000AF9008954F925F926F927F928F929F924E
:10307000AF92BF92CF92DF92EF92FF920F931F9386
:10308000CF93DF93CDB7DEB7AC970FB6F894DEBF22
:103090000FBECDBF7C015B01FC018381882309F455
:1030A000BEC0C7017ADFCE0101966C01A9DB270102
:1030B0009EE4490E511CC7018F96F20191838083D3
:1030C000F50180818F3209F05BC06FE270E0C501CD
:1030D0000E9492F98C010F5F1F4F09F457C06FE2F5
:1030E00070E0C8010E9492F94C01009709F44FC0AA
:1030F0000817190708F04BC03C01601A710AA301B8
:10310000B801CE0180960E94BBF9E0E2F0E0EC0F3E
:10311000FD1FE60DF71D10828E01005E1F4FF801A6
:1031200081918F01882319F00E942780F8CF8AE0CF
:103130000E942780F201608171816115710519F08B
:103140006C5F7F4F02C060E070E021E0AE01405E46
:103150005F4FCE0105960E94DE9B81110CC0BE011F
:10316000605E7F4F81E292E00E947C328EE20E949C
:1031700027808AE050C0F201D182C0828401ABCFA7
:10318000C701805B9F4FF201918380838501F2012B
:1031900080819181009711F0049602C080E090E058
:1031A000B8010E94B49C882301F1E3E1F2E084912C
:1031B0005F019FEFA91AB90A882321F00E94278096
:1031C000F501F5CFF80181918F01882319F00E9454
:1031D0002780F8CF8AE00E942780F701E258FD4F50
:1031E000108211821282138218C0EBEFF1E08491F9
:1031F0007F019FEFE91AF90A882321F00E942780B6
:10320000F701F5CFF80181918F01882319F00E9411
:103210002780F8CF8EE20E942780C601FBDAAC96A9
:103220000FB6F894DEBF0FBECDBFDF91CF911F91D7
:103230000F91FF90EF90DF90CF90BF90AF909F9055
:103240008F907F906F905F904F9008950F931F9392
:10325000CF93DF93EC018B81882359F1E9EEF1E004
:1032600084918F010F5F1F4F882321F00E942780D8
:10327000F801F6CFFE01E258FD4F60817181828135
:1032800093814AE050E00E949D808FE20E94278057
:10329000C658DD4F688179818A819B814AE050E080
:1032A0000E949D808AE0DF91CF911F910F910C9435
:1032B0002780E8EDF1E08491EF012196882321F049
:1032C0000E942780FE01F7CFDF91CF911F910F91D0
:1032D0000895AF92BF92CF92DF92EF92FF920F9339
:1032E0001F93CF93DF935C01EB01FB010190002062
:1032F000E9F78F0101501109061B170B6C01F3E36D
:10330000CF1AFEEFDF0AF60110826EE470E0CE0104
:103310000E9492F97C01009729F4F8013197EC0F93
:10332000FD1F0DC060E270E00E9492F9EC01219651
:103330006AE270E0C7010E9492F9FC0131978DE0CA
:1033400081838AE082831382BE01C50187539E4F29
:103350000E94919EF60180818823B1F0E9EDF2E1AF
:103360008491EF012196882321F00E942780FE019D
:10337000F7CFE1ECF1E08491EF012196882321F071
:103380000E942780FE01F7CFDF91CF911F910F910F
:10339000FF90EF90DF90CF90BF90AF9008956F9225
:1033A0007F928F929F92AF92BF92CF92DF92EF92D5
:1033B000FF920F931F93CF93DF93CDB7DEB7AA97FA
:1033C0000FB6F894DEBF0FBECDBF8C018A579D4F5C
:1033D0007C01611114C0FC018081882309F498C02C
:1033E0000E947BEDF801EE57FD4F80809180A28016
:1033F000B380681979098A099B0997FF89C0F70189
:103400001082F8018381811107C0C801A3DCF80193
:103410008381882309F47CC0F80186A58F9385A554
:103420008F9388EB91E09F938F937E01F1E2EF0EF3
:10343000F11CFF92EF920E94CAF90F900F900F902B
:103440000F900F900F90B12CF70101900020E9F739
:103450003197EE19FF09BE1684F46701CB0CD11C1D
:10346000B7FCDA94F6018081992787FD90950E9438
:103470000AF9F6018083B394E7CF4801F3E38F0E96
:10348000911C40E050E0BA01C4010E940499612CF3
:10349000CE0101965C0140E050E0B501C4010E94FC
:1034A0004D9818164CF5712CF50101900020E9F7A4
:1034B0003197EA19FB097E1674F46501C70CD11C1B
:1034C00077FCDA94F601808190E00E940AF9F60117
:1034D00080837394E9CF8A858E37E9F245E050E026
:1034E000B701C5010E94ADF9892BA9F6B701C80142
:1034F000E8DC66246394CFCF611004C08FEF9FEFA8
:10350000F80104C0F80185A596A5019696A785A7A0
:10351000AA960FB6F894DEBF0FBECDBFDF91CF9154
:103520001F910F91FF90EF90DF90CF90BF90AF90E1
:103530009F908F907F906F9008950F931F93CF93DC
:10354000DF93EC018C0103531E4FC8010E949D992B
:10355000C8010E94E79919821882DF91CF911F91CB
:103560000F910895CF92DF92EF92FF920F931F93E6
:10357000CF93DF93CDB7DEB76F970FB6F894DEBF6A
:103580000FBECDBF8C016A017C018EE4E80EF11CF8
:10359000C801805B9F4FF70191838083E75CFD4FFB
:1035A00022E030E03183208332967183608340E0F3
:1035B00050E0BA0104960E940499F701808191813C
:1035C0002BE1FC013496DE01159601900D922A95AF
:1035D000E1F7FC01828193819C838B838AE094E0F4
:1035E0009A8389839601AE014F5F5F4F61E274E079
:1035F000C80198D9CE0101960DD96F960FB6F894EF
:10360000DEBF0FBECDBFDF91CF911F910F91FF9015
:10361000EF90DF90CF9008953F924F925F926F921C
:103620007F928F929F92AF92BF92CF92DF92EF9252
:10363000FF920F931F93CF93DF93CDB7DEB7AC9775
:103640000FB6F894DEBF0FBECDBF8C016B01342ED8
:10365000FC018381882309F4D3C1E053FE4F8081AC
:10366000882309F481C0222309F49CC17801F8E180
:10367000EF1AFEEFFF0AF7018081882331F1E9EDAF
:10368000F2E184918F010F5F1F4F882321F00E9488
:103690002780F801F6CFE8EEF2E084918F010F5F0A
:1036A0001F4F882321F00E942780F801F6CF6AE09F
:1036B00070E081E090E00E94CF808AE00E94278045
:1036C0008FED92E00E94EA659BC1B80163517E4F85
:1036D000C8016FDCE3EDF2E184915F012FEFA21AE4
:1036E000B20A882321F00E942780F501F5CFB601A8
:1036F00086EC92E00E947C32F7018081B801FDE8FF
:103700008F9F600D711D112463517E4F8BEB92E0F2
:103710000E947C32580122E8A21A2DEFB20AF5016C
:10372000408151816281738185EB92E00E94173361
:103730008AE00E942780F7012081F80184E0289F19
:10374000E00DF11D1124AF0147515E4FF50180815D
:103750009181A281B381FA0180839183A283B38393
:103760002F5FF70120830FC0F801E851FE4F108250
:1037700092E0B92E19C1B60188EA92E00E947C322B
:103780008AE00E942780C80108DCCE0101965C0116
:1037900037D828019EE4490E511CC8018F96F201CA
:1037A00091838083F60180818F3209F065C07601B4
:1037B000FFEFEF1AFF0A09F465C06FE270E0C7017E
:1037C0000E9492F94C01009709F45DC0E816F906D1
:1037D00008F059C03C016E187F08A301B701CE0163
:1037E00080960E94BBF9E0E2F0E0EC0FFD1FE60DD1
:1037F000F71D1082CE0180967C01F70181917F0137
:10380000882319F00E942780F8CF8AE00E94278041
:10381000F201608171816115710519F06C5F7F4F54
:1038200002C060E070E021E0AE01405E5F4FCE017B
:1038300005960E94DE9B81111AC0E4E9F2E08491B2
:103840008F010F5F1F4F811104C08E01005E1F4F5B
:1038500004C00E942780F801F2CFF80181918F0106
:10386000882319F00E942780F8CF8EE285C0F201EC
:10387000B182A08274019CCFC801805B9F4FF2018E
:10388000918380837601C80183539E4F4C01F201DE
:1038900060817181332009F457C06115710519F0F9
:1038A0006C5F7F4F02C060E070E021E0A701C401BF
:1038B0000E94DE9B882309F443C0F4018189928928
:1038C000A389B4896801F6E8CF1AFDEFDF0AF60193
:1038D00080839183A283B383B70186E892E00E943C
:1038E0007C32F60140815181628173818EE792E0E2
:1038F0000E9417338AE00E942780F801E258FD4FAA
:103900001082118212821382EFE6F2E084916F013D
:103910002FEFC21AD20A882321F00E942780F601D5
:10392000F5CFA70160E070E0C8011CDEF8018289D4
:10393000882319F0C801429601C0C70160E02CC07D
:10394000B7018BE592E012C06115710519F06C5F4B
:103950007F4F02C060E070E026E5A701C4010E942D
:10396000DE9B81110CC0B70187E492E00E947C329B
:103970008EE20E9427808AE00E9427800FC081E0AB
:10398000F8018083B60185E392E00E947C328AE0F0
:103990000E94278060E0C7010E9447C0C5010E94C5
:1039A0000A142EC0BB24B394E3EDF2E184917F01AD
:1039B0002FEFE21AF20A882321F00E942780F701F4
:1039C000F5CFE0EBF2E084917F019FEFE91AF90A6D
:1039D000882321F00E942780F701F5CFE1E0BE1295
:1039E00003C081E593E002C087E593E07C01F70125
:1039F00081917F01882309F4BECE0E942780F7CFF2
:103A0000AC960FB6F894DEBF0FBECDBFDF91CF915D
:103A10001F910F91FF90EF90DF90CF90BF90AF90EC
:103A20009F908F907F906F905F904F903F90089500
:103A300021E0FC01218320E040E0EECDCF92DF9237
:103A4000EF92FF920F931F93CF93DF93CDB7DEB723
:103A50006F970FB6F894DEBF0FBECDBF8C016C011F
:103A60002EE4C20ED11C805B9F4FF60191838083B0
:103A7000E75CFD4F21E030E0318320837801F7E7F8
:103A8000EF1AFDEFFF0AF7011182108240E050E0CB
:103A9000BA0104960E940499F601808191812BE17C
:103AA000FC013496DE01159601900D922A95E1F7FE
:103AB000FC01828193819C838B838AE094E09A83CA
:103AC000898320E030E0AE014F5F5F4F61E274E038
:103AD000C8010E949214CE0101960E940A14F701B7
:103AE000808191816F960FB6F894DEBF0FBECDBF77
:103AF000DF91CF911F910F91FF90EF90DF90CF90CA
:103B00000895AF92BF92CF92DF92EF92FF920F9300
:103B10001F93CF93DF93CDB7DEB76F970FB6F894AF
:103B2000DEBF0FBECDBF8C01B62EA72ECE010196F3
:103B30000E940014F801E95AFF4F80817801811139
:103B400004C02FE2E20EF11C03C030E5E30EF11CCD
:103B5000670144E0C40ED11C21E04B2D5A2DB60163
:103B6000CE0105960E94DE9B811127C0E3EDF2E1B4
:103B700084918F010F5F1F4F882321F00E942780BF
:103B8000F801F6CFE2EAF1E084918F010F5F1F4F59
:103B9000811103C00B2D1A2D04C00E942780F8014B
:103BA000F3CFF80181918F01882319F00E942780BB
:103BB000F8CF8AE00E94278030C0F801EB55FE4F15
:103BC00080818A30D0F491E0980F908398014FE182
:103BD000849F200D311D1124C90181599F4F2BE174
:103BE000F601DC01149601900D922A95E1F7F70198
:103BF00022813381FC0133832283005B1F4F8BE1E1
:103C0000FE013596D801149601900D928A95E1F740
:103C10008B819C81F80193838283CE0101960E945F
:103C20000A146F960FB6F894DEBF0FBECDBFDF91BA
:103C3000CF911F910F91FF90EF90DF90CF90BF90A9
:103C4000AF900895CF93DF93FC01EB55FE4F208199
:103C50002223D1F021502083EC013FE1239FC00DAE
:103C6000D11D1124C159DF4F805B9F4F2BE1FE0115
:103C70003496DC01149601900D922A95E1F72A8181
:103C80003B81FC0133832283DF91CF910895EF9232
:103C9000FF920F931F93CF93DF93EC010E94A9A98A
:103CA0007E0183E3E81A8EEFF80AC7010E94E799C4
:103CB0008E0108511E4FF8018081882371F18150D7
:103CC0008083BE01FDE88F9F600D711D112463513B
:103CD0007E4F21E041E0CE019FDCF8018081FE01B2
:103CE00094E0899FE00DF11D1124E751FE4F4081C2
:103CF000518162817381FE01E258FD4F40835183FF
:103D000062837383C7010E940499CE01DF91CF9132
:103D10001F910F91FF90EF902BC91A8286E991E0D5
:103D20000E94A43583E098E00E945CAB83E098E0B9
:103D30000E94F2AA6D3371058105910550F082E968
:103D400091E0DF91CF911F910F91FF90EF900C9434
:103D5000A435DF91CF911F910F91FF90EF900895BF
:103D60000E949F92209113023091140240911502FB
:103D700050911602609117027091180280911902F9
:103D800090911A020E947B480E9409930E946DAC98
:103D90000E94416580E090E00E94A04C81E090E0AC
:103DA0000E94A04C82E090E00C94A04CBF92CF9275
:103DB000DF92EF92FF920F931F93CF93DF938C01CB
:103DC00080918804811145C0EB016B01C40ED51EA2
:103DD000CC15DD0509F43DC0F801E080F180B99013
:103DE000C7010E94E6FBB81619F16B2DC7010E94AE
:103DF000EEFBC7010E94E6FB8B15D1F0E3EDF2E18B
:103E00008491EF012196882321F00E942780FE01F2
:103E1000F7CFE5E2F7E08491EF012196882321F0C6
:103E20000E942780FE01F7CF81E08093880411C0B3
:103E30008091890490918A048B0D911D90938A043E
:103E400080938904F8018081918101969183808318
:103E5000BFCFDF91CF911F910F91FF90EF90DF9037
:103E6000CF90BF900895EF92FF920F931F93CF933F
:103E7000DF938C01EB017A01E60EF71EF8018081D9
:103E800091810E94E6FB90918704911101C0888383
:103E90002091890430918A04280F311D30938A04BF
:103EA00020938904F8018081918101969183808318
:103EB0002196CE15DF0511F7DF91CF911F910F915C
:103EC000FF90EF9008958F929F92AF92BF92CF9202
:103ED000DF92EF92FF920F931F93CF93DF93CDB7B3
:103EE000DEB764970FB6F894DEBF0FBECDBF1D825C
:103EF0001E821F82188680E390E3A0E3B0E08983EE
:103F00009A83AB83BC8384E690E0988B8F87109272
:103F1000880444E050E0BE016F5F7F4FCE010F96F2
:103F200045DF8F8598890296988B8F8710928A0437
:103F30001092890481E08C8B41E050E0BE016C5E00
:103F40007F4FCE010F9632DF40E150E065EA7DE021
:103F5000CE010F962BDF40E150E065EB7DE0CE0116
:103F60000F9624DF40E150E065E77DE0CE010F963B
:103F70001DDF44E050E069E67DE0CE010F9616DFDC
:103F800044E050E065E67DE0CE010F960FDF44E0AF
:103F900050E061E67DE0CE010F9608DF44E050E09E
:103FA0006DE67DE0CE010F9601DF44E050E06DE468
:103FB0007DE0CE010F96FADE44E050E061E77DE05F
:103FC000CE010F96F3DE40E150E061E57DE0CE01E9
:103FD0000F96ECDE4CE050E060E278E0CE010F9608
:103FE000E5DE1B8A80914C0D882351F080918B0473
:103FF000882331F08091090A882311F084E08B8BAB
:104000001D821E821F82188683E08A8B898B41E085
:1040100050E0BE016D5E7F4FCE010F96C7DE44E0DB
:1040200050E0BE016B5F7F4FCE010F96BFDE41E0D7
:1040300050E0BE016E5E7F4FCE010F96B7DE41E0CD
:1040400050E0BE016F5E7F4FCE010F96AFDE1AE0EB
:10405000115044E050E039F0BE016B5F7F4FCE015C
:104060000F96A4DEF5CF60EE77E0CE010F969EDED0
:104070001D821E821F8218861AE0115049F044E00A
:1040800050E0BE016B5F7F4FCE010F968FDEF5CF04
:104090008091090A882341F189E08B87898741E073
:1040A00050E0BE01655F7F4FCE010F967FDE41E09D
:1040B00050E0BE01675F7F4FCE010F9677DE44E090
:1040C00050E064E977E0CE010F9670DE44E050E006
:1040D00060E977E0CE010F9669DE44E451E06CE4DC
:1040E00076E0CE010F9662DE4CE050E068EC77E0BF
:1040F000CE010F965BDE44E050E067E172E0CE0156
:104100000F9654DE44E050E063E172E0CE010F967A
:104110004DDE44E050E06FE072E0CE010F9646DEE7
:1041200044E050E06CEA77E0CE010F963FDE44E0D9
:1041300050E068EA77E0CE010F9638DE44E050E0C8
:1041400064EA77E0CE010F9631DE44E050E068EC9F
:1041500075E1CE010F962ADE44E050E064EC75E193
:10416000CE010F9623DE44E050E060EC75E1CE0115
:104170000F961CDE10E0C12C80E8D82E8BE3E82ED1
:1041800085E4F82E812C912C90E8A92E9FE3B92E7E
:10419000111122C044E050E063E772E0CE010F96B7
:1041A00005DE44E050E06FE672E0CE010F96FEDDE2
:1041B00044E050E06BE672E0CE010F96F7DD8D82B1
:1041C0009E82AF82B88644E050E0BE016B5F7F4FB5
:1041D000CE010F96EBDD1CC0CD82DE82EF82F88629
:1041E00044E050E0BE016B5F7F4FCE010F96DEDDF5
:1041F0001D821E821F82188604E0015049F044E0AF
:1042000050E0BE016B5F7F4FCE010F96CFDDF5CF43
:104210001F5F143009F0BCCF84E190E09E878D874A
:1042200042E050E0BE01635F7F4FCE010F96BEDDDE
:1042300080E090E8ABE3B5E48D839E83AF83B887DD
:10424000115049F044E050E0BE016B5F7F4FCE015A
:104250000F96ACDDF5CF80E290E09C878B8742E043
:1042600050E0BE01655F7F4FCE010F969FDD41E0BC
:1042700050E068E378E0CE010F9698DD11110CC094
:104280008091400290914102A0914202B09143027C
:104290008D839E83AF83B88744E050E0BE016B5F9F
:1042A0007F4FCE010F9682DD1F5F143039F780916A
:1042B000880481113CC08091890490918A049A8776
:1042C0008987EF84F88884E690E0988B8F8744E0B4
:1042D00050E06DE573E0CE010F9668DD42E050E0FE
:1042E000BE01675F7F4FCE010F9660DDE3EDF2E127
:1042F00084916F019FEFC91AD90A882321F00E9487
:104300002780F601F5CFB7016456710983E197E084
:104310000E94A432EAE0F7E084917F019FEFE91A5E
:10432000F90A882321F00E942780F701F5CF6496CF
:104330000FB6F894DEBF0FBECDBFDF91CF911F91B6
:104340000F91FF90EF90DF90CF90BF90AF909F9034
:104350008F900895AF92BF92DF92EF92FF920F93EA
:104360001F93CF93DF93CDB7DEB7E0970FB6F894E6
:10437000DEBF0FBECDBF80E1E9EFF2E0DE01919636
:1043800001900D928A95E1F780E1E9E0F3E0DE012A
:10439000519601900D928A95E1F780E1E9E1F3E011
:1043A000DE01119601900D928A95E1F77E0181E27E
:1043B000E80EF11C05EA1DE0BE016F5E7F4F45EB84
:1043C0005DE09E012F5F3F4FE5E7AE2EEDE0BE2E94
:1043D000D12CF70181919191A191B1917F01F801C7
:1043E00081939193A193B1938F01FB01819191915D
:1043F000A191B191BF01FA0181939193A193B193DE
:10440000AF01F90181919191A191B1919F01F501C4
:1044100081939193A193B1935F01D394F4E0DF1260
:10442000D8CF80E090E8ABE3B5E48093690D90933A
:104430006A0DA0936B0DB0936C0D8093650D9093F6
:10444000660DA093670DB093680D80E090E8ABEB2C
:10445000B4E48093610D9093620DA093630DB093CB
:10446000640D10926D0D10926E0D10926F0D1092E2
:10447000700D80E29EE4A0E0B0E08093710D909317
:10448000720DA093730DB093740D10924D0D109298
:104490004E0D10924F0D1092500D80E090E0A0EA6A
:1044A000B0E48093510D9093520DA093530DB093AF
:1044B000540D8093550D9093560DA093570DB093C6
:1044C000580D8093590D90935A0DA0935B0DB093A6
:1044D0005C0D80935D0D90935E0DA0935F0DB09386
:1044E000600D109228081092290810922A08109244
:1044F0002B0810922408109225081092260810927A
:104500002708109220081092210810922208109279
:1045100023088091090A81110E941F541092E0071C
:104520001092E1071092E2071092E3071092C80779
:104530001092C9071092CA071092CB071092CC07AD
:104540001092CD071092CE071092CF071092D0078D
:104550001092D1071092D2071092D30780E090E01A
:10456000A0EEB2E48093170290931802A093190270
:10457000B0931A0280E090E0AAE5B3E480931302BE
:1045800090931402A0931502B093160280E090E07D
:10459000A0EAB2E480930F0290931002A09311025C
:1045A000B09312021092AC071092AD071092AE07B2
:1045B0001092AF071092A8071092A9071092AA07AD
:1045C0001092AB071092A4071092A5071092A607AD
:1045D0001092A70784EB90E09093C9158093C815BB
:1045E00080EF90E09093CB158093CA1586E490E01D
:1045F0009093C5158093C4158EE690E09093C715EF
:104600008093C6151092C1151092C0151092C31553
:104610001092C2158AE999E9A1EBB1E48093730283
:1046200090937402A0937502B093760288EC9EE694
:10463000A9E5BEE380936F0290937002A09371028C
:10464000B093720280E695EFA0E1B4E480936B0230
:1046500090936C02A0936D02B0936E021092380892
:1046600080E090E0A0E4B0E48093400290934102A7
:10467000A0934202B093430210920A021092900457
:104680006FDBE3EDF2E184918F010F5F1F4F882311
:1046900021F00E942780F801F6CFE7EAF6E0849146
:1046A0008F010F5F1F4F882321F00E942780F801A0
:1046B000F6CFE0960FB6F894DEBF0FBECDBFDF9108
:1046C000CF911F910F91FF90EF90DF90BF90AF902F
:1046D0000895AF92BF92CF92DF92EF92FF920F9325
:1046E0001F93CF93C82F811124C0E3EDF2E1849191
:1046F0008F010F5F1F4F882321F00E942780F80150
:10470000F6CFE6E9F6E084918F010F5F1F4F882313
:1047100021F00E942780F801F6CFE3EDF2E18491C9
:104720008F010F5F1F4F882321F00E942780F8011F
:10473000F6CF4091A50D5091A60D6091A70D7091F7
:10474000A80D8EE896E00E94DB324091A90D5091B1
:10475000AA0D6091AB0D7091AC0D8BE896E00E94B4
:10476000DB324091AD0D5091AE0D6091AF0D709167
:10477000B00D88E896E00E94DB324091B10D509177
:10478000B20D6091B30D7091B40D85E896E00E9472
:10479000DB328AE00E942780C11124C0E3EDF2E100
:1047A00084918F010F5F1F4F882321F00E94278083
:1047B000F801F6CFEAE6F6E084918F010F5F1F4F14
:1047C000882321F00E942780F801F6CFE3EDF2E183
:1047D00084918F010F5F1F4F882321F00E94278053
:1047E000F801F6CF4091B50D5091B60D6091B70D1F
:1047F0007091B80D81E696E00E94DB324091B90DD0
:104800005091BA0D6091BB0D7091BC0D8EE596E094
:104810000E94DB324091BD0D5091BE0D6091BF0DE5
:104820007091C00D8BE596E00E94DB324091C10D86
:104830005091C20D6091C30D7091C40D88E596E052
:104840000E94DB328AE00E942780C11124C0E3ED80
:10485000F2E184918F010F5F1F4F882321F00E94A6
:104860002780F801F6CFE9E3F6E084918F010F5F2E
:104870001F4F882321F00E942780F801F6CFE3ED37
:10488000F2E184918F010F5F1F4F882321F00E9476
:104890002780F801F6CF4091750D5091760D60910B
:1048A000770D7091780D80E396E00E941733409168
:1048B000790D50917A0D60917B0D70917C0D8DE298
:1048C00096E00E94173340917D0D50917E0D6091CE
:1048D0007F0D7091800D8AE296E00E94173340911F
:1048E000810D5091820D6091830D7091840D87E24E
:1048F00096E00E9417338AE00E942780C11124C0ED
:10490000E3EDF2E184918F010F5F1F4F882321F0C7
:104910000E942780F801F6CFE4EFF5E084918F0143
:104920000F5F1F4F882321F00E942780F801F6CFE8
:10493000E3EDF2E184918F010F5F1F4F882321F097
:104940000E942780F801F6CF4091690D50916A0DC1
:1049500060916B0D70916C0D8BEE95E00E94DB32D7
:104960004091650D5091660D6091670D7091680DD5
:1049700088EE95E00E94DB324091610D5091620D0E
:104980006091630D7091640D85EE95E00E94DB32BD
:104990008AE00E942780C11124C0E3EDF2E18491F6
:1049A0008F010F5F1F4F882321F00E942780F8019D
:1049B000F6CFE1E3F5E084918F010F5F1F4F88236D
:1049C00021F00E942780F801F6CFE3EDF2E1849117
:1049D0008F010F5F1F4F882321F00E942780F8016D
:1049E000F6CF40916D0D50916E0D60916F0D7091ED
:1049F000700D88E295E00E94DB3240914D0D5091A0
:104A00004E0D60914F0D7091500D85E295E00E9422
:104A1000DB324091710D5091720D6091730D709168
:104A2000740D82E295E00E9417334091510D509130
:104A3000520D6091530D7091540D8FE195E00E94DD
:104A4000DB324091550D5091560D6091570D70918C
:104A5000580D8CE195E00E94DB324091590D509148
:104A60005A0D60915B0D70915C0D89E195E00E949B
:104A7000DB3240915D0D50915E0D60915F0D709144
:104A8000600D86E195E00E94DB328AE00E9427807B
:104A9000C11124C0E3EDF2E184918F010F5F1F4F3C
:104AA000882321F00E942780F801F6CFE4E0F5E0AA
:104AB00084918F010F5F1F4F882321F00E94278070
:104AC000F801F6CFE3EDF2E184918F010F5F1F4F04
:104AD000882321F00E942780F801F6CF409120081A
:104AE0005091210860912208709123088BEF94E087
:104AF0000E94DB32409124085091250860912608DD
:104B00007091270888EF94E00E94DB3240912808DA
:104B10005091290860912A0870912B0885EF94E044
:104B20000E94DB328AE00E942780C11118C0E1EEAA
:104B3000F4E084918F010F5F1F4F882321F00E94C2
:104B40002780F801F6CFE3EDF2E184918F010F5F4A
:104B50001F4F882321F00E942780F801F6CF609133
:104B60004C0D70E088ED94E00E94A4328AE00E942F
:104B70002780C11124C0E3EDF2E184918F010F5F22
:104B80001F4F882321F00E942780F801F6CFEEEB1B
:104B9000F4E084918F010F5F1F4F882321F00E9462
:104BA0002780F801F6CFE3EDF2E184918F010F5FEA
:104BB0001F4F882321F00E942780F801F6CF4091F3
:104BC000C8075091C9076091CA077091CB0785EB60
:104BD00094E00E94DB324091CC075091CD07609168
:104BE000CE077091CF0782EB94E00E94DB324091B8
:104BF000D0075091D1076091D2077091D3078FEA07
:104C000094E00E94DB328AE00E942780C11124C018
:104C1000E3EDF2E184918F010F5F1F4F882321F0B4
:104C20000E942780F801F6CFEBE4F4E084918F0135
:104C30000F5F1F4F882321F00E942780F801F6CFD5
:104C4000E3EDF2E184918F010F5F1F4F882321F084
:104C50000E942780F801F6CF409113025091140270
:104C6000609115027091160282E494E00E94DB329A
:104C700040911702509118026091190270911A0226
:104C80008FE394E00E94DB3240910F0250911002BA
:104C900060911102709112028CE394E00E94DB3269
:104CA0004091AC075091AD076091AE077091AF078E
:104CB00089E394E00E94DB324091A8075091A90754
:104CC0006091AA077091AB0786E394E00E94DB3203
:104CD0004091A4075091A5076091A6077091A7077E
:104CE00083E394E00E94DB328AE00E942780C111B6
:104CF00018C0E3EDF2E184918F010F5F1F4F88230D
:104D000021F00E942780F801F6CFE6E1F4E08491DB
:104D10008F010F5F1F4F882399F00E942780F801B1
:104D2000F6CFF8ECAF2EF5E1BF2EA4ECCA2EA5E12C
:104D3000DA2EB0ECEB2EB5E1FB2E00E010E00CC05B
:104D4000E3EDF2E184918F010F5F1F4F882349F358
:104D50000E942780F801F6CFB8018DE094E00E9410
:104D6000A432F501619171915F018AE094E00E94A3
:104D7000A432F601619171916F0187E094E00E9485
:104D8000A432F701619171917F0184E094E00E9467
:104D9000A4328AE00E9427800F5F1F4F0230110566
:104DA000D9F6C11124C0E3EDF2E184918F010F5FC8
:104DB0001F4F882321F00E942780F801F6CFE5EFEE
:104DC000F3E084918F010F5F1F4F882321F00E9431
:104DD0002780F801F6CFE3EDF2E184918F010F5FB8
:104DE0001F4F882321F00E942780F801F6CF4091C1
:104DF00073025091740260917502709176028CEE8C
:104E000093E00E94DB322CE933E549E45EE36091F4
:104E10006F027091700280917102909172020E94F3
:104E200062F1AB01BC0189EE93E00E94F9322CE9FA
:104E300033E549E45EE360916B0270916C0280910E
:104E40006D0290916E020E9499F3AB01BC0186EE57
:104E500093E00E94F9328AE00E942780C1112DC0A0
:104E6000E3EDF2E184918F010F5F1F4F882321F062
:104E70000E942780F801F6CFE3EDF3E084918F01E3
:104E80000F5F1F4F882321F00E942780F801F6CF83
:104E900080913808882321F08AE00E94278079C019
:104EA000E8ECF3E084918F010F5F1F4F882309F432
:104EB00070C00E942780F801F5CF409140025091C8
:104EC000410260914202709143028FEB93E00E9495
:104ED000DB328AE00E9427808091380881111BC054
:104EE000CC2319F0E4EBF3E00CC0E3EDF2E18491A4
:104EF0008F010F5F1F4F8823A9F30E942780F801BD
:104F0000F6CF84918F010F5F1F4F882321F00E94FD
:104F10002780F801F6CFC11124C0E3EDF2E18491BE
:104F20008F010F5F1F4F882321F00E942780F80117
:104F3000F6CFEEE9F3E084918F010F5F1F4F8823D6
:104F400021F00E942780F801F6CFE3EDF2E1849191
:104F50008F010F5F1F4F882321F00E942780F801E7
:104F6000F6CF4091E0075091E1076091E207709120
:104F7000E30785E993E00E94DB328AE0CF911F913D
:104F80000F91FF90EF90DF90CF90BF90AF900C9477
:104F90002780E3EDF2E184918F010F5F1F4F88239B
:104FA00009F48BCF0E942780F801F5CF2F923F9212
:104FB0004F925F926F927F928F929F92AF92BF9229
:104FC000CF92DF92EF92FF920F931F93CF93DF93D5
:104FD000CDB7DEB7CE54D1090FB6F894DEBF0FBE01
:104FE000CDBF2DB73EB72D963FAF2EAF2D9784E6A0
:104FF00090E025969FAF8EAF25971092870444E0EE
:1050000050E0BE01635C7F4FCE018D5B9F4F0E94DD
:10501000331F42E050E0BE016F5B7F4FCE018D5BDE
:105020009F4F0E94331F43E050E0BE01635C7F4FFF
:105030008DE593E00E94ADF9892B11F08BD93AC32D
:105040006DB67EB619AE1AAE1BAE1CAE10928A04B7
:105050001092890441E050E0BE01665B7F4FCE01B3
:105060008D5B9F4F0E94331F80E1E9EFF2E0DE018C
:10507000919601900D928A95E1F780E1E9E0F3E0E5
:10508000DE01519601900D928A95E1F780E1E9E108
:10509000F3E09E012F5F3F4F7901D90101900D92FE
:1050A0008A95E1F72B96CFAC2B97D12C33E0C30E2A
:1050B000D11CCC0CDD1CCC0CDD1C8DB79EB78C1923
:1050C0009D090FB6F8949EBF0FBE8DBFEDB7FEB71A
:1050D00031964F012DB73EB72C193D090FB6F89404
:1050E0003EBF0FBE2DBF8DB79EB701965C01EDB7D9
:1050F000FEB7EC19FD090FB6F894FEBF0FBEEDBF69
:105100000DB71EB70F5F1F4FA601B401CE018D5B17
:105110009F4F0E94331FA601B501CE018D5B9F4FAB
:105120000E94331FA601B801CE018D5B9F4F0E94E4
:10513000331F2B964FAD2B9750E04E5F5F4F25E707
:105140003DE02F963FAF2EAF2F9765EB7DE0A5EAB0
:10515000BDE080E090E020E030E04217530714F01B
:10516000640105C0F1E2CF2ED12CCC0EDD1EC80E9D
:10517000D91EF60120803180428053802D923D92CD
:105180004D925D924217530714F0650105C0E1E1AD
:10519000CE2ED12CCC0EDD1EC80ED91EF6012080DD
:1051A000318042805380FB01219231924192519291
:1051B000BF014217530714F0680101C06701C80E10
:1051C000D91EF60120803180428053802F96EEADAB
:1051D000FFAD2F9721923192419251922F96FFAFBE
:1051E000EEAF2F972F5F3F4F04962430310509F023
:1051F000B4CF44E050E069E67DE0CE018D5B9F4F87
:105200000E94331F44E050E065E67DE0CE018D5BF7
:105210009F4F0E94331F44E050E061E67DE0CE01E5
:105220008D5B9F4F0E94331F44E050E06DE67DE0B0
:10523000CE018D5B9F4F0E94331F44E050E06DE430
:105240007DE0CE018D5B9F4F0E94331F44E050E014
:1052500061E77DE0CE018D5B9F4F0E94331F40E1EF
:1052600050E061E57DE0CE018D5B9F4F0E94331FD2
:105270004CE050E060E278E0CE018D5B9F4F0E94F1
:10528000331F41E050E0BE01675B7F4FCE018D5B75
:105290009F4F0E94331F44E050E0BE01675C7F4F88
:1052A000CE018D5B9F4F0E94331F41E050E0BE0155
:1052B000685B7F4FCE018D5B9F4F0E94331F41E0A3
:1052C00050E0BE01695B7F4FCE018D5B9F4F0E9416
:1052D000331F2996EFAC299728968FAD2897E89E23
:1052E0007001112400E010E044E050E00E151F05AD
:1052F00059F0BE01675C7F4FCE018D5B9F4F0E94CE
:10530000331F0F5F1F4FF0CF60EE77E0CE018D5B54
:105310009F4F0E94331F1AE0115059F044E050E0B3
:10532000BE01675C7F4FCE018D5B9F4F0E94331F94
:10533000F3CF41E050E0BE016A5B7F4FCE018D5B51
:105340009F4F0E94331F41E050E0BE016B5B7F4FD7
:10535000CE018D5B9F4F0E94331F27968FAD2797FD
:10536000893071F526968FAD2697893049F580E012
:105370000E94005444E050E064E977E0CE018D5B88
:105380009F4F0E94331F44E050E060E977E0CE0178
:105390008D5B9F4F0E94331F44E451E06CE476E044
:1053A000CE018D5B9F4F0E94331F2A968FAD2A97A7
:1053B000843019F481E080938B041092090A2FC085
:1053C00044E050E0BE016B5C7F4FCE018D5B9F4F90
:1053D0000E94331F44E050E0BE016F5C7F4FCE015E
:1053E0008D5B9F4F0E94331F2796EFAC2797269621
:1053F0008FAD2697E89E7001112400E010E00E1595
:105400001F0569F044E050E0BE01675C7F4FCE01AC
:105410008D5B9F4F0E94331F0F5F1F4FF0CF4CE0FB
:1054200050E068EC77E0CE018D5B9F4F0E94331F08
:1054300044E050E067E172E0CE018D5B9F4F0E9437
:10544000331F44E050E063E172E0CE018D5B9F4F7B
:105450000E94331F44E050E06FE072E0CE018D5BAC
:105460009F4F0E94331F44E050E06CEA77E0CE018A
:105470008D5B9F4F0E94331F44E050E068EA77E065
:10548000CE018D5B9F4F0E94331F44E050E064EAE1
:1054900077E0CE018D5B9F4F0E94331F44E050E0C8
:1054A00068EC75E1CE018D5B9F4F0E94331F44E095
:1054B00050E064EC75E1CE018D5B9F4F0E94331F7D
:1054C00044E050E060EC75E1CE018D5B9F4F0E949F
:1054D000331F10E044E050E0BE01675C7F4FCE0117
:1054E0008D5B9F4F0E94331F11110EC0C9ACDAAC07
:1054F000EBACFCAC20E030E84BE355E4C701B6016F
:105500000E945BF1811102C004E025C0C0927302C9
:10551000D0927402E0927502F092760244E050E07C
:105520006FE672E0CE018D5B9F4F0E94331F44E017
:1055300050E06BE672E0CE018D5B9F4F0E94331FFF
:1055400044E050E0BE01675C7F4FCE018D5B9F4F12
:105550000E94331F0DC0015059F044E050E0BE01DD
:10556000675C7F4FCE018D5B9F4F0E94331FF3CF4F
:105570001F5F143009F0AECF42E050E0BE016B5C1B
:105580007F4FCE018D5B9F4F0E94331F115031F032
:1055900044E050E0BE01675C7F4FF3CF42E050E053
:1055A000BE016F5C7F4FCE018D5B9F4F0E94331F0A
:1055B00041E050E068E378E0CE018D5B9F4F0E94B0
:1055C000331F44E050E0BE01675C7F4FCE018D5B2E
:1055D0009F4F0E94331F11110CC089AD9AADABAD26
:1055E000BCAD8093400290934102A0934202B093DD
:1055F00043021F5F143029F72091890430918A04F7
:1056000023968EAD9FAD239728173907A9F5809172
:105610008704882319F00E94AA2147C00E94B01E67
:10562000E3EDF2E184918F010F5F1F4F811103C001
:105630000DE513E004C00E942780F801F3CFF801C4
:1056400081918F01882319F00E942780F8CF259639
:105650006EAD7FAD2597645671098DEE96E074D7D7
:10566000E4EEF6E084918F010F5F1F4F8823E9F08D
:105670000E942780F801F6CFE9EDF2E184918F01D5
:105680000F5F1F4F882321F00E942780F801F6CF7B
:10569000EAECF6E084918F010F5F1F4F882309F435
:1056A000BACF0E942780F801F5CF0FB6F8947EBEDE
:1056B0000FBE6DBE80E00DD82D962EAD3FAD2D975F
:1056C0000FB6F8943EBF0FBE2DBFC25BDF4F0FB6C3
:1056D000F894DEBF0FBECDBFDF91CF911F910F9128
:1056E000FF90EF90DF90CF90BF90AF909F908F9002
:1056F0007F906F905F904F903F902F9008955398B8
:105700005B9A6C98749AE4E0F1E080818E7F8083EC
:105710009FB7F894E5E0F1E08081816080839FBFCE
:1057200052985A9A08950F931F93CF93DF93CDB752
:10573000DEB7A2970FB6F894DEBF0FBECDBF809143
:105740008F04882309F4A9C0E3EDF2E184918F016D
:105750000F5F1F4F882321F00E942780F801F6CFAA
:10576000EAE9F7E084918F010F5F1F4F882321F052
:105770000E942780F801F6CF80918F0480FD3CC005
:1057800080918F0484FD38C010E280918F0481FDE8
:105790004EC080918F0485FD4AC000E280918F0445
:1057A00082FD60C080918F0486FD5CC090E28AE03B
:1057B0009AA30E9427801F9280E28F931F929AA142
:1057C0009F931F920F931F921F9389E797E09F93D8
:1057D0008F938E010F5F1F4F1F930F930E94CAF983
:1057E00060E0C8010E9447C010928F040FB6F89481
:1057F000DEBF0FBECDBF51C06091651470916614BD
:1058000080916714909168140E94FDF12091950D8C
:105810003091960D4091970D5091980D0E9499F3FB
:10582000AB01BC0186E997E0C6D618E5AECF609122
:10583000691470916A1480916B1490916C140E9499
:10584000FDF12091990D30919A0D40919B0D509151
:105850009C0D0E9499F3AB01BC0182E997E0ABD6A5
:1058600009E59CCF60916D1470916E1480916F1456
:10587000909170140E94FDF120919D0D30919E0D2C
:1058800040919F0D5091A00D0E9499F3AB01BC0176
:105890008EE897E090D69AE58ACFA2960FB6F89454
:1058A000DEBF0FBECDBFDF91CF911F910F91089545
:1058B000CF93DF93EFE5F7E08491EF012196882302
:1058C00021F00E942780FE01F7CFE7E5F7E0849101
:1058D000EF012196882321F00E942780FE01F7CF57
:1058E000649903C0C1E6D3E002C0CBE6D3E089915E
:1058F000882319F00E942780FACF8AE00E9427802F
:10590000EFE4F7E08491EF012196882321F00E94D3
:105910002780FE01F7CF8091030180FD03C0C1E61F
:10592000D3E002C0CBE6D3E08991882319F00E942E
:105930002780FACF8AE00E942780E7E4F7E084918D
:10594000EF012196882321F00E942780FE01F7CFE6
:105950004B9903C0C1E6D3E002C0CBE6D3E0899106
:10596000882319F00E942780FACF8AE00E942780BE
:10597000EFE3F7E08491EF012196882321F00E9464
:105980002780FE01F7CF4A9903C0C1E6D3E002C0E9
:10599000CBE6D3E08991882319F00E942780FACFC3
:1059A0008AE0DF91CF910C942780EF92FF920F93C2
:1059B0001F93CF93DF938091A51480FD31C04CB12C
:1059C00080918E0490E042954F7051E04527242F3E
:1059D000217030E031952195310928273927207130
:1059E00033272827392720938E0480918D048071D6
:1059F0008223B1F0E091A614F091A71482819381E3
:105A0000A481B581181619061A061B064CF480915C
:105A10008F04816080938F0480E090E00E945EAAF2
:105A20008091A51481FD31C08091030120918E04E5
:105A300030E0809580FBEE24E0F8F12C8827992750
:105A40008E199F098227932780729927822793278F
:105A500080938E0490918D0490729823B1F0E09120
:105A6000A614F091A71486819781A085B185181698
:105A700019061A061B064CF480918F0482608093ED
:105A80008F0481E090E00E945EAA9091A51480911D
:105A90008E0492FF1FC090918C04992309F44BC08F
:105AA00029B190E026952695269531E02327022FEF
:105AB000017010E01195019511090827192704704C
:105AC00011270827192700938E0480918D04847074
:105AD000802319C029B190E02695269531E023272F
